:060000000A128A11FC2F18
:100E78008316031388018312031388010130831238
:100E8800031388001A30F100F830F000F00B4A2FF5
:100E9800F10B4A2F000002308312031388001A3026
:100EA800F100F830F000F00B572FF10B572F00002E
:100EB80004308312031388001A30F100F830F00070
:100EC800F00B642FF10B642F00000830831203131A
:100ED80088001A30F100F830F000F00B712FF10B98
:100EE800712F000010308312031388001A30F100AC
:100EF800F830F000F00B7E2FF10B7E2F0000203031
:100F08008312031388001A30F100F830F000F00B58
:100F18008B2FF10B8B2F00004030831203138800B6
:100F28001A30F100F830F000F00B982FF10B982FE1
:100F3800000080308312031388001A30F100F83063
:100F4800F000F00BA52FF10BA52F00004030831205
:100F5800031388001A30F100F830F000F00BB22FBC
:100F6800F10BB22F000020308312031388001A30CF
:100F7800F100F830F000F00BBF2FF10BBF2F00008D
:100F880010308312031388001A30F100F830F00093
:100F9800F00BCC2FF10BCC2F000008308312031379
:100FA80088001A30F100F830F000F00BD92FF10B5F
:100FB800D92F000004308312031388001A30F1007F
:100FC800F830F000F00BE62FF10BE62F00000230AE
:100FD8008312031388001A30F100F830F000F00B88
:100FE800F32FF10BF32F0000422F0A128A11002869
:080FF80083010A128A113C2F4B
:04400E00F12FFF3F50
:00000001FF
